:1000000040260020351E0000FF660000211E000073
:10001000211E0000211E0000211E00000000000023
:10002000000000000000000000000000F51F0000BC
:10003000211E000000000000911F0000211E000092
:10004000D1210000D1210000D1210000D1210000E8
:10005000D1210000D1210000D1210000D1210000D8
:10006000D1210000D1210000D1210000D1210000C8
:10007000D1210000D1210000D1210000D1210000B8
:10008000D1210000D1210000D1210000D1210000A8
:10009000D1210000D1210000D1210000D121000098
:1000A000D1210000D1210000D1210000D121000088
:1000B000D1210000D1210000D1210000D121000078
:1000C000D1210000D1210000D1210000D121000068
:1000D000D1210000D1210000D1210000D121000058
:1000E000D1210000D1210000D1210000D121000048
:1000F000D1210000D1210000D1210000D121000038
:10010000034613F8012B002AFBD1181A0138704757
:100110002DE9F04F91B08407009302F0040302939D
:10012000C2F3C20303F10103DDF8689003920546B0
:100130000E46059340F0BA81041D30B1072909D855
:100140006FF01B0011B0BDE8F08F01F00706341D01
:10015000C6F10806009B4FF00008591E4FF0040A34
:100160004FF0FF330193CDF810804746C346534606
:100170000DB1009A22600598002800F3E8809848A5
:10018000009A824203D397488242C0F0E080039AEB
:10019000A4EB050E92074FEA9E0000F103810F2F9A
:1001A00000F2B180002D00F0058107F140020DEB57
:1001B000020C019A0CF8200C0CF8102C0498013059
:1001C0000490E7E07A285DD84B280ED8472859D804
:1001D00029282DD8252852D054D820287AD0233841
:1001E000D0F1000B4BEB000B74E04C382E2849D8B3
:1001F000DFE800F0704848484848484848484848C0
:100200004B484848484848484859484B4B59595921
:10021000704B6D487048184B184848827F4B4848CF
:100220004B487F0000204FF0000B4FF0040A38E0ED
:100230002A38C0B2012202FA00F010EA0E0F49D1AA
:1002400010F0625C2FD110EA020B43D06046013CF3
:100250005444B4FBFAF40AFB04F4002D61D0A3EB80
:10026000050CA4446645FFF46BAF002868D1042B4D
:1002700047D159F8043B2360043404232AE0019A4F
:10028000013A01924FF0000B24E011F8010C6C28A8
:1002900034D111F8023C00206C2B8346C5D14FF0BD
:1002A000080A5346D3E709F1070929F0070907347B
:1002B000F9E802AB24F0070435B106982044B042B7
:1002C0003FF63EAFC4E900AB08344FF0000B4FF0EF
:1002D000080A534611F8010F002878D0BBF1000F2F
:1002E0007FF470AF2528F5D1019B013301934FF0C6
:1002F000010B4FF0040AECE7584694E700208346D0
:10030000A5E7082B02D06FF015001BE709F10709DC
:1003100029F00709F9E80223C4E900230834082377
:10032000D8E768B9042B02D109F10409A4E7082B26
:10033000E9D109F1070929F0070909F10809EDE7F1
:10034000059A013A059259F8042B009210E7039A96
:10035000900720D5A4EB050E4FEA9E004FF0010C4C
:10036000BEF5007FCFD20F2FCDD8F5B107F14002F7
:100370000DEB020EC0B2019A0EF8200C0EF8102CF4
:10038000BCF1000F3FF41AAF60F07F000EF8200CB4
:1003900008F101080137C5F10802043406924FF64E
:1003A000DA7E97E74FF0000CDAE7BCF1000F01D0DE
:1003B0000136EFE7029802360028EBD10098CDE92C
:1003C0000631FFF79DFEDDE906310644E2E7631BD7
:1003D000B3F5806F97D23DB9A6F10804E018B1E6F5
:1003E000407000001C7E0000029A28609B082B7061
:1003F0009DF81030C2B1EB7085F80280B8F1000FA3
:1004000005D008A80022C5F1010C97420ED1C5F114
:1004100001030DF120094FF0000A01930DF1300B9B
:10042000574512D1601B8DE66B70E5E710F8013B74
:10043000190608D504EB0C0E764503F07F03FFF494
:100440007FAE04F8013B0132DFE7B8F1000F03D0C3
:1004500099F90020002A17DB029BD3B11AF80B2070
:1004600004F8012B0022019B981820448642FFF4D7
:1004700067AE99F8000004F8010B0099039220463A
:1004800006F0B5FD039A14440AF1010A09F10109C5
:10049000C6E799F8002055F822300093029B45F8F2
:1004A00022300098FFF72CFE421CDCE76FF00D00B5
:1004B00048E600BF2DE9F04F95B000AF90F802B0CC
:1004C000BB61BB6F7A62C3F3C00304463B618A46DB
:1004D00041B9457800780BEB80002044554517D88A
:1004E000A0EB040AE3787B61BBF1000F02D0BB6F85
:1004F000D80716D47B6953BB7B6A1BB1BA695146D6
:1005000020469847554628465437BD46BDE8F08FEB
:10051000461C3046FFF7F4FD013030440AF1010A71
:10052000DCE723783B629B00FB603B6A6268FA6110
:1005300004EB83097B6A002B40F0FE805546C846D9
:1005400009EB0B0A0026D04551D1D94413E0BB6F0B
:100550009907D1D523783B6299469B00FB6063687D
:10056000FB617B6A04EB8909002B7AD15546BBF10C
:10057000000F4FD15E46BB6F13F0050F7B6909EB8F
:10058000430ABB6F03F002030CBF4FF0020B4FF0A6
:10059000010B7B62D145B6D019F8021B19F8013C5A
:1005A00054F82380AA4B984502D3AA4B984538D3D8
:1005B0003B69002B42D0F86905F0B6FB00283DD01E
:1005C000E8468AB06A46A44B5361FB69C2E906312A
:1005D0004FF400731384A14B42F8103FA04800234E
:1005E0004FF4125100F01EFD023DC546D2E718F847
:1005F000013B54F82300FFF783FDFB6F01303BB153
:10060000D7F880309E423EBFFB6F23F816000136BC
:10061000054498E7BB6F13F004061CBF7E6AD944FB
:10062000A9E73B6923B1F86905F07EFB0028C7D133
:10063000BB6FDA0705D4A5EB0B05ABE77B6A002B94
:10064000A8D04046FFF75CFDFB6F43B1D7F8803080
:100650009E423FBFFA6F431C22F816300136054414
:1006600098E7BBF1000F6DD0BB6F13F004066CD0A0
:10067000D846002607F140005A46494606F0B7FC26
:100680007B695B007B607B69D94409EB4303BB60FA
:10069000BB6F03F002033B60BB684B4557D1B96F9A
:1006A0006378B86F890706EB030254BF4FEA58011D
:1006B0000021C507D2B200F19A8010F0040F14BFD8
:1006C00040460020FB616270A070E170BA69F96871
:1006D0007B6A20469847051EFFF615AF3B6A2370DC
:1006E000FB6963707B69E3704146BA697B6A84F891
:1006F00002B007F140009847B0F10008C0F2A480B2
:10070000FB68BA69AAEB0B01C91A7B684846C91A8B
:100710007B6A98470028C0F29980A84408EB00053E
:100720004FF0000B07F1300AB34562D30021BA69DC
:100730007B6A08469847E6E65E464FF0000807F1F8
:10074000300099E75E46D8469AE7B04698E719F830
:10075000021B3F4B19F8015C54F82500984202D364
:100760003C4B98421DD33B6923B1F86905F0DCFA94
:10077000002891D13B68FBB908F1280307F1280252
:1007800008F1010003EB020C07F1500353FA80F06B
:1007900008F102080CF8101C5FFA88F800F8105CE9
:1007A0007AE73B692BB1F86905F0BEFA00287FF4BF
:1007B00073AFBB6FDB0709D506F1280307F12802E9
:1007C000711C9E1806F8205CCEB265E7BB6F580717
:1007D0007FF562AF08F1280307F1280208F1010153
:1007E00003EB020808F8105C5FFA81F854E7002078
:1007F00068E71BF80A3087F82F3054F82390FB6F16
:10080000FBB133F81B80BA697B6A012107F12F0025
:10081000984700281ADB0544B8F1000F06D1484676
:10082000FFF76EFC00F101081FFA88F8BA697B6ACD
:10083000414648469847002808DB05440BF1010B68
:1008400072E7D7F87C80DEE745465CE605465AE667
:10085000407000001C7E00008B7500000400000149
:1008600080720000014B1860704700BF000000203C
:1008700080B505460E461746984604F099FB034698
:1008800006F0D4FBDFF81890044649F800304246E1
:1008900030463946A84754F8090001F04BFB00BF29
:1008A000080000002DE9F047058B04462807904614
:1008B00011D4022905F0070540F0CD80204605F04F
:1008C000D0FA78B10138218B042811D8DFE800F084
:1008D000C3106D85950001290CBF45F0100545F04A
:1008E0002005258388F31188BFF36F8FBDE8F0875B
:1008F00001F0070AAA4500F0A6800027B9463E4647
:10090000A368002B00F0BD8041F00801218388F32B
:100910001188BFF36F8FA168002900F0BB800D68BC
:10092000002900F0B780D1F80480334652462046B3
:10093000C047002D76D02B6829461D46F0E701F010
:1009400007035A1F012A1BD8002221F00701062B9A
:10095000276889B2C4E9002209D13B4603E0628BD3
:10096000013262831B68002BF9D141F0020121831F
:10097000204605F076FA00287BD041F0200177E090
:10098000042B0AD121F0070189B22183204605F00A
:1009900068FA10B141F020012183218B01F0070A90
:1009A000AA4550D00027B946AAE7236921F00701DC
:1009B00041F00601062DD3F8009021832DD1B9F125
:1009C000000F40D041F00801218388F31188BFF364
:1009D0006F8F3A492046C84729E021F00701236973
:1009E00041F0040189B2042DD3F804902183E6D0AC
:1009F00000273E464FF0040A82E721F007012369F1
:100A000041F0050189B2052DD3F808902183D6D095
:100A100000273E464FF0050A72E700273E464FF09A
:100A2000060A6DE72B4687E7B9F1000FD1D14FF0E9
:100A30002003EFF3118883F31288BFF36F8F238BAA
:100A400023F008032383258BEA062ED525F0100317
:100A5000238305F007056669218B002EBFF66FAF73
:100A600000232768C4E9003321F0070141F00101A8
:100A70002183218B01F0070AAA454FF000097FF47A
:100A80003FAF002F9BD041F00801218388F31188EC
:100A9000BFF36F8F002FC7D03D68394633465246AB
:100AA000204605F00AFA2F46F4E7AB067FF51AAFA9
:100AB00025F02003238305F00705FFE6E75E00002D
:100AC00008B504464FF02002EFF3118382F3128839
:100AD000BFF36F8F02F010FD204601F0D5F90348F7
:100AE00005F049F901F04EFBFCE700BF3F7600003E
:100AF0002DE9F047DFF85880044607464FF001091A
:100B000014B93846BDE8F08794FAA4F5B5FA85F52E
:100B100009FA05F32E0108EB05156FEA030A24EA2A
:100B200003042B7B002BEBD058F806301B694BB924
:100B30004644042273682846196807EA0A0700F049
:100B40005DFADDE7284698470028D9D1F0E700BFD5
:100B5000D072000030B51049104889B0002206F06C
:100B6000B7F90F4D0F4900220023CDE906230024D9
:100B70000E23CDE90334CDE901440B4B00944FF42F
:100B80004072284603F0A0FD0849284606F051F8B7
:100B9000204609B030BD00BFB10B00009006002018
:100BA0000802002040150020A10E00006876000019
:100BB000014803F0B7BE00BFF40100202DE9F04763
:100BC00080461F480F4605F08EFC0646002830D0B0
:100BD00000252846BDE8F087237B73B12368DB68D6
:100BE0000BB12046984723681B69D3B96368042278
:100BF0001968204600F002FA013610344C45EBD358
:100C0000B8F1000FE5D0002DE2D02846FFF770FFC5
:100C10000546002FF7D000214FF4A47004F0AEF980
:100C2000F1E7204698470028E0D00AFA06F31D4372
:100C3000E2E7044CDFF8109005464FF0010ADDE7CB
:100C400018080020D0720000F0720000014B53F829
:100C5000200070470C73000008B5034608462BB10E
:100C6000044A136000F07EFC002008BD6FF0150000
:100C7000FBE700BF0400002010B5044C237813B933
:100C8000034803F04FFE0123237010BDE410002041
:100C9000F401002010B50446084805F024FC5CB1BE
:100CA000BFF35B8F064B53E8001F013943E8001286
:100CB000002AF8D1BFF35B8F10BD00BF10080020E1
:100CC000140800200020064BBFF35B8F014653E859
:100CD000000F43E80012002AF9D1BFF35B8F704781
:100CE0001008002070B5FFF7EDFF084C084E0546D0
:100CF000B44200D370BD63685B792BB123685B6835
:100D000013B12946204698471034F1E7D07200000D
:100D1000F072000010B5044C0449204605F074FA46
:100D2000034B1C6010BD00BF54010020F87200008E
:100D300008080020084A094808B500231370084A2B
:100D40001360084A4FF400411360FFF785FFBDE8C8
:100D50000840FFF7DFBF00BFE5100020E36400009C
:100D6000100800201408002001460022014800233A
:100D700005F06BBA54010020014805F004BB00BF28
:100D800054010020024B0146186805F04EBB00BF1D
:100D900008080020014805F084BB00BF5401002072
:100DA00070B5284B187800284BD0FFF7E5FF0546B3
:100DB00090B1BFF35B8F244B53E8001F013943E828
:100DC0000012002AF8D1BFF35B8F204C204EB442B2
:100DD0002DD32846FFF7D6FF1E4B1F4C1B68002B58
:100DE00019DD06F073F84FF47A72A0FB020302FBE0
:100DF0000131C30BD4E9002043EA41439B1A4FEA77
:100E0000D13140F2E93261EB0001934271F100010E
:100E100001D3FFF767FFD4E9003213F57A7342F18B
:100E20000002C4E90032BDE87040FFF7B3BF636859
:100E30005B7923B1236829461B6820469847103404
:100E4000C5E770BDE410002014080020D072000037
:100E5000F0720000100800208806002070B50D4DCB
:100E6000297861B90120FFF7A9FE0B4C0B4EB44263
:100E700006D3FFF795FF0028FBD101232B7070BD2F
:100E800063685B791BB1236820469B6898471034E0
:100E9000EDE700BFE5100020D0720000F072000006
:100EA00000212DE9F0470846FFF788FE044658B3B5
:100EB00040F267684FF0000906F0B8F81B4B1C4A77
:100EC0001B58136033B11B4B1B68092B02DD1A48FA
:100ED00003F028FD194FDFF860A0002544B120463B
:100EE000FFF706FE044618B94FF0FF384FF0FF3900
:100EF000FFF756FF064628B9B5B942464B4650465D
:100F000003F034FD3546E9E74FF0FF384FF0FF3985
:100F1000D2E72B689B691BB10022114628469847EF
:100F20001035BD42F5D3E8E7054DFAE708000000AB
:100F30000C08002014080020F4010020F0720000CA
:100F4000D072000013B5184805F0CDFA174B1B7886
:100F50007BB14FF02003EFF3118483F31288BFF3CA
:100F60006F8FFFF71DFF84F31188BFF36F8F02B0FF
:100F700010BD0F4B1B68002BF9D050B90022002385
:100F8000CDE900230B484FF40042002304F0E2F9BE
:100F9000EDE70928EBD1074805F0A6FF064802B0A7
:100FA000BDE8104003F0BEBC14080020E51000208E
:100FB0000C08002090060020F401002010B5064B1C
:100FC0001B68044698472146A060044805F0BBF919
:100FD000BDE81040FFF7B6BF040000205401002018
:100FE000044A054B9B1AB1EBD30F34BF52F83100C2
:100FF0000020704778720000D0720000084BC31ABE
:1010000010B41B1144680133237143689A7143681B
:101010001960436801225A7110BCFFF72DBE00BF52
:10102000D07200002DE9F04F8FB004AFC1F34A2811
:10103000B8600D4691467B600C0DB8F1000F63D08F
:10104000002607F114034FF0040B4FF00A0AC7F80B
:101050000C80C7E907667E620193CDF808B0CDF831
:1010600000A007F11C03F96832464846FFF722FA50
:10107000B0F5006F03461CD36C468AB0D9F8041053
:1010800004AB2648C3E9050140F2FF71D9611A4655
:101090004FF400711984224B42F8103F2148334627
:1010A0004FF41251FFF7BEFFA5462C37BD46BDE8F1
:1010B000F08FC0F30A0804F11700184420F007006D
:1010C00080083B60FFF750FE68F35325044690B15B
:1010D0003B68154AC7E9083600F1100107F114030F
:1010E000F961CDE900A3CDF808B0F96807F11C0358
:1010F0004846FFF7DFF968F353257B68B9682A464D
:10110000204605F026FAD0E704F1170020F007008A
:101110008008FFF729FE0446EDE700BF7D7600005A
:101120000400000198720000276500002DE9F04FCF
:1011300087B0DDE91269DDE9105A04460F4693468F
:101140009846A6B31021CDF80090334652460020B1
:10115000CDF81490FEF7DCFF014605F117000844B6
:10116000144B039104F007040BF0070BE40020F08C
:10117000070003EA412344EA8B1480081C43FFF76D
:10118000F3FD44EA0554054640B13EB10399CDF85C
:101190000090334652461030FEF7BAFF43462246CF
:1011A0003946284607B0BDE8F04F05F0D2B93146C0
:1011B000D3E700BF00FE0F000EB403B503AB01463A
:1011C00053F8042B0448019301F082F902B05DF852
:1011D00004EB03B0704700BF4D660000CA0605D49B
:1011E0008B064CBF02490349FFF7E6BF704700BFBB
:1011F000BD760000BC7600002DE9F04F89B09B461B
:101200009DF84C300493DDE914930593049B0692FA
:10121000DDE9167604460D46002B00F0878006F0C7
:101220000803079305F07DF906F0020A024600283C
:101230004BD086492046FFF7BFFF8046BAF1000F2A
:1012400008D016F0440F42D181492A462046FFF7C4
:10125000B3FF804406F001035BB17E4B049A7E49E4
:1012600053F822207D4B2046002A08BF1A46FFF77C
:10127000A3FF06F00803002B55D0794B049A794957
:1012800053F822202046FFF797FF0546069B2BB117
:1012900075491A462046FFF78FFF0544BBF1000F42
:1012A00005D072495A462046FFF786FF054445445B
:1012B000B9F1000F49D1002F4FD1F30700F1C080E1
:1012C00031462046FFF78AFFB4E08046B6E7684B18
:1012D00018680028BDD0674B4FF47A7E1B68B5FBB9
:1012E000F3F54FF46162B5FBF0F300FB1355B3FB6C
:1012F000F2FA0EFB05F502FB1A323C21B5FBF0FCBD
:10130000B2FBF1F300FB1C5501FB13220EFB05F5AC
:101310000092B5FBF0F55849CDE901C5524620468B
:10132000FFF74AFF95E706F00805AFE7BBF1010FAD
:1013300006D1B9F1000F64D1002F7BD000250CE05D
:10134000B9F1000FF8D04D485CE04D484D494B468F
:10135000224604F0B8FC002F68D0DFF82C91DFF8AB
:101360002CA1102F31462046B84628BF4FF0100858
:10137000FFF734FF4FF0000B5D4545DC059B514600
:101380001A782046FFF718FF4FF0010B1BF0070FEC
:1013900003D149462046FFF70FFFD8453BD9059BAF
:1013A000514613F80B202046FFF706FF0BF1010B07
:1013B000BBF1100FEAD1364920464FF0000BFFF782
:1013C000FBFE5A46059B9A5CA2F120015F2928BFCB
:1013D0002E2230492046FFF7EFFE0BF1010BBBF147
:1013E000100F1DD01BF0070F03D149462046FFF711
:1013F000E3FED8455A46E5D849462046FFF7DCFECD
:10140000EBE71F48049DA1E749462046FFF7D4FEBD
:101410000BF1010BB0E720492046FFF7CDFEC5E7F1
:10142000059BB7EB0807434405939AD1049B002B17
:101430007FF443AF204609B0BDE8F04F05F0F9B89E
:10144000064A05492046FFF7B7FE39E7C476000093
:10145000C87600001C730000ED760000BF76000027
:1014600030730000F0760000F6760000FA76000097
:10147000200800201C080020D176000083660000B0
:101480004D660000D124000007770000FF760000C1
:10149000097700000B770000057700002DE9F04187
:1014A0000F884B688E6886B005460C469046C7F399
:1014B00082175BB1144A9B1A43F3CF01002920DB4A
:1014C0002078C0F3C200FFF78BFD034621466088F9
:1014D00051F8102B0197C2F34A22002A01EB0204B3
:1014E000C0F30B1008BF00210022CDE90408CDE9AC
:1014F0000214009231462846FFF77EFE06B0BDE892
:10150000F0810023E2E700BF7872000073B542F279
:101510000F738B4228BF0B4605680F4A044605210E
:10152000684604F047F963680C495B6806460B227D
:10153000284605F071F863683246694628465B68BC
:1015400005F06AF8636806495B681B22284605F0C7
:1015500063F802B070BD00BF4E7D00002A77000026
:101560000E770000074A00210123904206D8064A60
:1015700001B901231360054B1860704740085B00F8
:101580000121F2E740420F001C0800202008002043
:10159000014B01221A707047E6100020014B002019
:1015A0001960704738080020024B034801221A7066
:1015B00005F03FB8E7100020607300000148FFF716
:1015C000A5BF00BF6073000010B5064B18680C463D
:1015D000FFF73CFB21460346BDE8104002480F22BE
:1015E000184700BF380800206073000010B9074B8F
:1015F00018707047064B1B781BB141F2883005F01C
:10160000B4BAA420002103F0B9BC00BFE61000204A
:10161000E71000202DE9F843DFF874901D4F804655
:101620000E46042499F8005095B902F049FE284668
:101630003246414602F0F6FD054602F04BFEE5B1AA
:1016400001233B7099F8003073B93046BDE8F88348
:1016500032464146002002F0E5FD0546EFE7204610
:10166000FFF7C4FF651E2C46002002F01FFE002875
:10167000EBD03B78002BF2D1E7E73B78002BE4D0AE
:10168000013C2046FFF7B2FF3B78002BCAD1DCE7D4
:10169000E7100020E6100020F8B5074F0D4604467D
:1016A0004618B44201D12846F8BD14F8011BBB68A6
:1016B00001485B689847F4E7E4700000014B036061
:1016C00000207047A4730000014803F0CBBE00BFA8
:1016D000A473000038B5044618B90F4B0F485B6877
:1016E00098476168B1F5683F10D0B1F5680F0DD02B
:1016F0000B4DA9420AD011F46861206807D0014659
:10170000084805F06AFA00232360656038BD14229A
:1017100005F07BFCF9E700BFEC00002080770000BB
:101720002C5F5CA9600D002008B520B34368B3F5B9
:10173000683F10D101220368BFF35B8F53E8001F9D
:10174000002903D143E800200028F7D1BFF35B8FC5
:101750000DD1002008BD094A93420AD000684FF01D
:10176000FF324FF0FF3303F063F80028F1D0044854
:10177000F0E70448EEE76FF4E040EBE72C5F5CA98C
:10178000E98FFFFFEA8FFFFF08B5D8B14368B3F5D3
:10179000683F10D100220368BFF35B8F53E8001F3E
:1017A000012903D143E800200028F7D1BFF35B8F64
:1017B0000BD1002008BD074A934208D0006802F010
:1017C000FBFFF6E76FF4E040F4E70348F2E7034875
:1017D000F0E700BF2C5F5CA9E98FFFFFEA8FFFFFF6
:1017E00010B5044618B91D4B1D485B6898476368DF
:1017F000B3F5683F2FD0B3F5680F2CD0194A934248
:1018000019D1236803BB18484FF0FF324FF0FF3364
:10181000214602F0EBFE08B923681BB90F4B1348B1
:101820005B68984720681422002105F0EEFB4FF416
:101830006863636008E0B3F5683F0DD83A2B03D0C6
:1018400040F6BA629342DED1206805F00BFA636875
:1018500043F03A03636010BD054AF3E7EC00002053
:10186000807700002C5F5CA9600D0020A677000047
:101870003A00003A08B5064906484023142205F00C
:101880009EF9BDE808400449044803F05DBE00BF6E
:1018900060080020600D0020AC730000C0730000E1
:1018A0002DE9F047804600AF0C46002936D0E946C6
:1018B0008AB0D1E90012A3686D461C482E464FF04D
:1018C000050AC5E90501C5E9072346F810AF184820
:1018D000324600234FF42151FFF7A4FBCD46D4E953
:1018E00003126369AD461348C5F810A0C5E90501A8
:1018F000C5E907230E48002332464FF42151FFF774
:1019000091FBCD46E3690C4A0948012104F07AFEB7
:10191000A3690A4A0648012104F074FE21464046A4
:1019200002F0DEFCBD46BDE8F08700BFD3770000C3
:10193000B8720000027800003178000040780000A2
:1019400030BFFFF7FDBF00BF114B124A2DE9F04138
:10195000D518DFF84480013DB5FBF3F55D430F4B2F
:1019600008EB0304013CB4FBF3F403FB04540E1B2B
:1019700007460B49304605F03AFB701942460021F4
:10198000083E05F042FB3E6704F10800BDE8F08127
:10199000010000000000000004000000040000003E
:1019A000F0720000044B99685869884203D00349DB
:1019B0004FF080520A607047DC0E002004ED00E01A
:1019C00070B5294C06460D462848294904F09EFE6C
:1019D000A36AD9043CD52548264904F097FE172070
:1019E000A36A1A0504D52148234904F08FFE182064
:1019F0001D4CA36A9B0512D51C48204904F086FEA5
:101A0000A36BA26A100409D51D4A1848012104F0ED
:101A1000F9FD1EB1A36A23F40043A3621920124CFE
:101A2000A36A590504D51148164904F06FFE1A201F
:101A3000A36ADA050ED50D48134904F067FE1B2092
:101A4000094A936A43F47F43936200232B7070BD6D
:101A50001620C5E7A36A9B04F2D504480B4904F09D
:101A600055FE1C20ECE700BF00ED00E0B87200005E
:101A70006E7800008478000095780000A878000057
:101A8000C1780000D6780000F178000009790000E4
:101A900010B5204C2049214804F038FEA36A990172
:101AA00036D51E481E4904F031FE1E20A36ADA0115
:101AB00004D51A481B4904F029FE1F20154CA36ABF
:101AC0001B0304D51548184904F020FE2120A36A01
:101AD000590304D51148154904F018FE22200D4C75
:101AE000A36A9A0304D50D48114904F00FFE232080
:101AF000A36ADB0304D509480E4904F007FE24203D
:101B0000044A936A6FEA03436FEA1343936210BD7A
:101B10001D20CBE700ED00E038790000B87200002E
:101B200050790000637900007D7900009B79000006
:101B3000C0790000DA7900002DE9F843364D80467F
:101B4000894636483649174604F0E0FDAB6ADE06A2
:101B500027D53449314804F0D9FD1124AB6A1D075B
:101B600004D531492D4804F0D1FD12242A4DAB6A29
:101B7000980718D52D49294804F0C8FD6E6BAB6A4B
:101B8000190646D52A4A25483346012104F03AFD74
:101B9000B9F1000F03D0AB6A23F08003AB621324CA
:101BA00003E01024DAE76FF015061B4DAB6ADA0785
:101BB00004D52049194804F0A9FD1424AB6A9B06FA
:101BC00004D51D49154804F0A1FD1524124B9A6A4D
:101BD000D50602D49A6A90070AD55B68190507D51D
:101BE0004146304600F096FA10B180F3098802248D
:101BF000094B9A6A920642BF5A6A22F400525A620C
:101C00009A6A42F0FF029A6200233B702046BDE8C8
:101C1000F8836FF01506C2E700ED00E0B87200002F
:101C2000057A00001B7A0000957800004E7A0000CB
:101C3000667A00007C7A0000097900002DE9F04105
:101C4000664B8AB0D3F8048000AF0446C8F3080599
:101C5000002686F31188BFF36F8F02F07F43B3F144
:101C60007F4F07D102F00C03082B12D15C495D486D
:101C700004F04CFD002634460023FB71EB1E092BBB
:101C800000F28A80DFE803F00A80837D88888888F4
:101C9000888610074CBF0C460126EDE75249514893
:101CA0004E4D04F033FD0023FB71EB6A9A0705D516
:101CB0004E494C4804F02AFD002333E0EB6A002B28
:101CC00001DA4B49F5E7EB6A5B00F5D54949454830
:101CD00004F01CFD6B69A26943F480736B61BFF370
:101CE0004F8FBFF36F8F6B6932F8022C23F4807330
:101CF0006B61BFF34F8FBFF36F8F4DF602739A4244
:101D000009D0AB6ADBB27BB3FA1D01212046FFF795
:101D100013FF034606E02368374A3248012104F0E6
:101D200071FC2368FA79DAB907F1080504F1200C8F
:101D3000206861682A4603C2083464451546F7D115
:101D40007A6A002E44D0C2F3080121B96FEA522208
:101D50006FEA42227A6207F108011846FFF7A0FDF8
:101D60002837BD46BDE8F081AB6A13F47F4F04D03D
:101D7000F91D0120FFF724FECBE7AB6AB3F5803FE6
:101D80009AD3FFF785FEC4E7FA1D0021BEE7F91DCF
:101D90000020EFE719498CE7194A1A4B18F4F87F2D
:101DA000E8468AB018BF13466A461749C2E90513C8
:101DB0004FF400731384103D144BD56142F8103F6B
:101DC000084800234FF41151FFF72CF9C54673E77B
:101DD00022F4FF7222F00102BCE700BF00ED00E038
:101DE000C97A0000B8720000F47A00000B7B000092
:101DF0002C7B00003A7B0000597B0000757B0000C3
:101E0000B07A00009B7A0000997B0000040000017A
:101E1000024A536943F010035361704700ED00E03C
:101E2000EFF30880EFF3098101B57246FFF706FF73
:101E300001BD00BF002080F31488BFF36F8F00F056
:101E4000A1FB00200D490860BFF34F8F0C4880F3C1
:101E5000088800F03DF8202080F3118809484FF4ED
:101E60000461401880F30988EFF3148002210843CD
:101E700080F31488BFF36F8F00F014F994ED00E045
:101E80004026002080180020BFF34F8F0549064BE5
:101E9000CA6802F4E0621343CB60BFF34F8F00BF08
:101EA000FDE700BF00ED00E00400FA050749D1F8A6
:101EB00090200023C2F307221846934200DB7047AC
:101EC000C1F89830C1F8A0000133F6E700ED00E05A
:101ED00008B572B6002383F31388FFF7E7FF144BAE
:101EE0004FF0FF32C3F88020C3F88420C3F8882065
:101EF000C3F88C20C3F89020C3F89420C3F898202E
:101F0000C3F89C20C3F88021C3F88421C3F888213A
:101F1000C3F88C21C3F89021C3F89421C3F8982109
:101F2000C3F89C2162B6BFF34F8FBFF36F8F08BD1C
:101F300000E100E0084B9B6883420BD1EFF305837F
:101F400043B1064B5A6842F080525A605A6A22F4F2
:101F500000425A6204F07FBFDC0E002000ED00E07A
:101F6000094A93686FF00A019967084958674B68F6
:101F700043F080534B60002383F31188BFF36F8FCE
:101F80009368986F704700BFDC0E002000ED00E002
:101F900015498A684FF030001044EFF3098C80E84F
:101FA000F01F202080F31288BFF36F8F0F4F4FF088
:101FB00000664A698A603E604FF070041419206818
:101FC0000B4C2060506F0023536780F3118804B5D9
:101FD000104600F01DF9BDE8044002F1300090E821
:101FE000F01F8CF309887047DC0E002004ED00E040
:101FF0007C0D00201EF0040F0CBFEFF30880EFF300
:102000000980816911F8021C0229FFD001B504F092
:1020100072FB01BD40B2002807DB044A41090123DD
:1020200000F01F00834042F82130704700E100E0DB
:1020300040B200280CDB4309064900F01F002033A2
:102040000122824041F82320BFF34F8FBFF36F8FEF
:10205000704700BF00E100E0054B420900F01F009F
:1020600053F82220012303FA00F01040704700BF0C
:1020700000E100E040B20028A8BF00F1604001F19B
:102080000101B8BF064B4FEA4111ACBF00F56140FA
:1020900000F00F00C9B2B4BF195480F800137047A4
:1020A00014ED00E00B4A08B50B4B22F07F029A605A
:1020B000BFF34F8FBFF36F8FD3F8882022F47002E5
:1020C000C3F8882002F0BEF902F078FF00F074F83F
:1020D00002F00AFA0000000000ED00E042F8203CA7
:1020E000009B42F81C3C0A49019B42F8183C029BA9
:1020F00042F8143C21F001014FF0807342F8043C97
:1021000042F8081C0023203A02654367704700BF6D
:1021100071080000094A0346906870B113F1160F68
:10212000006E05D0A0F140029A4205D8834203D246
:10213000814228BF0020704700207047DC0E00203D
:1021400008B514460A4A0B4B9060026F1A600D46A0
:1021500000F05EF8204685F30988002163B681F31C
:102160001188BFF36F8F00220023FEF781FB00BFB1
:10217000DC0E00207C0D0020014910220A6070470F
:1021800010ED00E072B6404080F31188BFF36F8F0E
:10219000BFF34F8F30BF62B6BFF36F8F704700BF82
:1021A00072B6494081F31188BFF34F8F20BF80F38F
:1021B000118862B6704700BF044800232021C2186E
:1021C0000133302B82F80013F9D1704700E100E0B1
:1021D00001B5EFF30580A0F110004FEAC0000449FB
:1021E000014409C99847BDE8014002490847000079
:1021F000F8700000A5190000024B034A03480121B2
:1022000000F084B80000042000000020D07300001B
:10221000026E054B403A1A60044A4021C3E901129C
:102220001846012100F07CB8800D002000000B153D
:10223000072808B5034607D90C480D4A012104F0C8
:10224000E1F96FF0150008BD0A48C0F898300A6837
:1022500022F01F021A4342F01002C0F89C208A6844
:1022600042F00102C0F8A0201846ECE7B07200006E
:10227000B07B000000ED00E0F0B50E4685B01F46D3
:1022800004460025B5420DDA606810B397B1431ECD
:1022900018420AD0104A11482B46012104F0B2F925
:1022A0006FF01502104605B0F0BD1F28F2D9216865
:1022B0000B42EFD12368019304F030FAA36801A91F
:1022C0000343D0B20393FFF7B3FF10F1160FE7D02B
:1022D000421C01350C34D5E7D67B0000B0720000FB
:1022E000044B0522C3F89420BFF34F8FBFF36F8FC9
:1022F000704700BF00ED00E0BFF35F8F024B00228C
:10230000C3F89420704700BF00ED00E010B5034C07
:1023100001232278FFF7B0FF207010BDF9100020D4
:1023200008B5094A00231278FFF7A6FF10F1160F2F
:1023300003D0064B0022072800DD08BDC3F8980033
:10234000C3F8A0200130F6E7F910002000ED00E00E
:10235000F0B54F490868082885B000F29680FFF76D
:10236000CBFF4C4C49680022904201F10C010DD189
:10237000494D4A4F28706846FFF7A0F900240646E9
:10238000A64216D1FFF7ACFF00202DE0C4F898203C
:1023900051F80C3C23F01F03134343F01003C4F81F
:1023A0009C3051F8043C43F00103C4F8A0300132E2
:1023B000DAE7009800EB04114FEA041CCB683B40BD
:1023C000B3F5000F4FD011D8B3F5001F35D0B3F5DA
:1023D000800F3DD0B3F5801F17D0314A314801211D
:1023E00004F007F96FF0150005B0F0BDB3F1807F80
:1023F00042D0B3F1007FF0D150F80C3088684A68C1
:1024000004F08CF940F4802009E050F80C30886822
:102410004A6804F083F940F0885040F4302003907B
:1024200001A92878CDE90123FFF702FF0028D9DBB5
:102430002B7801332B700134A2E750F80C308868F8
:102440004A6804F06BF940F0885040F40020E6E759
:1024500050F80C3088684A6804F060F940F0E06099
:1024600040F40030DBE750F80C3088684A6804F02C
:1024700055F940F08270D2E750F80C3088684A680D
:1024800004F04CF940F08870C9E74FF0FF30ABE73B
:10249000DC73000000ED00E0F91000200000F0FF08
:1024A000F97B0000B072000008B5024B1B6898472A
:1024B000002008BD8C0D0020034B044A186093785F
:1024C00043F00203937070478C0D00203000002011
:1024D000F0B587B007460E46144600211022684624
:1024E0001D4604F092FD02238DF802302A46054B6A
:1024F000019321466846CDE9047603F087F907B0D9
:10250000F0BD00BF3D67000008B50649064821F050
:102510000701C1F1005202F5802203F065FC0020A2
:1025200008BD00BF87260020900D00200E4A012321
:10253000C2F840354FF080424FF08051C2F87835F4
:10254000D1F83001082808D1D1F83411052904D870
:102550000648415C09B1C2F838364FF08043012289
:10256000C3F880250020704700E001402A7C00006D
:1025700020B1034B800143F001031847704700BFAF
:10258000F072000000F0FABF084B70B5C31A0D4698
:1025900007499B10044659430648402204F0F5F8C9
:1025A0002B4601462046BDE870401847B00D00207C
:1025B000B76DDBB6A870000073B50C4C0C4A402315
:1025C000041B00930D460B460A49A41061430646BE
:1025D000094804F006F9011E05DA30462B4602B020
:1025E000BDE87040184702B070BD00BFB00D0020BC
:1025F0004D680000B76DDBB6A8700000002270B512
:10260000012104461046FFF735FD0F4801F040F95F
:102610000E4B984215D101F04BF926690C49304612
:1026200003F06FFC00280BDB0125356424690849A1
:1026300004F11C0003F065FC002801DBE5640020C8
:1026400070BD6FF00400FBE7892600000000AD0BB1
:10265000FC73000070B501460C2309484B43C418B5
:10266000D4E90E56403300221844A26304F07AF8ED
:102670002DB132462B460348BDE87040184770BD67
:10268000B00D0020A870000010B1012804D07047E0
:10269000034B1B6C5B0701D1FFF7DCBF704700BF2A
:1026A000B00D002008B54FF02003EFF3118183F344
:1026B0001288BFF36F8F124A136843F00200106054
:1026C000DA0708D481F31188BFF36F8F0120BDE8CA
:1026D000084001F0FFB84FF08043D3F80C24D3F842
:1026E0000C34DB07EED5074804F03CF881F3118881
:1026F000BFF36F8F0020BDE80840FFF7ABBF00BFFE
:10270000000E0020F00D00201FB500220123CDE9AE
:102710000223094ACDF800D06B46CDF804D004F06E
:102720008EF8002805DB4FF480420023684602F053
:102730001DF905B05DF804FB6B68000010B54FF0A3
:102740002003EFF3118483F31288BFF36F8F074ADE
:10275000136823F00201DB07116002D4012004F0AA
:102760007BF984F31188BFF36F8F10BD000E00203A
:102770002DE9F0413849BFF35B8F0746012251E84C
:10278000003F41E800200028F9D1BFF35B8F33B947
:10279000324933484B60CB608A6003F0C5FB7B1E37
:1027A000012B2BD8012F07D14FF08043D3F81C34D5
:1027B00003F00303012B21D004F035FA0546F8B9E4
:1027C000284B1B78E3B14FF080430222C3F8082363
:1027D0000646DFF894804FF08044D4F81824D4F8EB
:1027E0001834D20316D503F00303012B01D0012FB7
:1027F00010D15DB386F31188BFF36F8FBDE8F08110
:102800004FF02003EFF3118683F31288BFF36F8F2D
:102810000125DEE7ADB13046FFF7C2FCD4F818352C
:10282000002BDAD1D4F80421002AD6D0C4F8043120
:10283000D4F804310123C4F81835C8F88031A360F6
:10284000CBE70021212002F099FBE7E74FF080431E
:102850000222C3F80423D1E7AC0D00209C0D002018
:10286000CC0D00200C15002000E100E008B5074861
:1028700004F080F938B10648FFF71EFE0448FDF762
:10288000F1FF002008BD6FF01200FBE7E4700000CC
:10289000952800000A2838B5074D044604D1AB68D6
:1028A0000D215B6828469847AB6803485B68E1B236
:1028B0009847204638BD00BFE4700000F0B540687E
:1028C000057B01F01F0444EA4514056987B0002D1B
:1028D00064D0B2F5001F00F1100506D1214628464C
:1028E00004F03AF9002007B0F0BD01AE0027B2F5C0
:1028F000800F0197776039D1B3F1007F14BF0523B2
:1029000004238DF804300023CDE904630393836826
:1029100023FA01F111F001011AD1B2F1A07F17D110
:1029200004F01F03620903F5E0732AD0012A3BD1AA
:102930001F4A52F82330DB070AD40DF10306324652
:102940002146284601F0A4FA1A4B98421CD0029660
:1029500003AA2146284601F05DF9174B984220D181
:1029600001222146284601F0FBFABBE7B3F1C06F14
:1029700005D0B3F1007F14BF01230223C1E7032375
:10298000BFE74FF0A042D4E73146284601F0E2FA13
:10299000094B9842DBD06FF00B00A4E76FF0850085
:1029A000A1E76FF015009EE751F82330FFDE00BF6E
:1029B000000300500400AD0B0000AD0B38B54568B6
:1029C0002B69B3B11035284601F0B4FA044680B93A
:1029D0000146284601F076FA084B98420BD1084987
:1029E0002246284601F04EFA224605210620FFF72E
:1029F00041FB002038BD6FF00400FBE70000AD0B89
:102A0000052A0000420970B5034602D0012A17D0FA
:102A100070BD0D4E326951680029F9D003F01F03D3
:102A200001250C689D400029F2D08A682A4002D016
:102A30004B68304698472CB1236821461C46F2E784
:102A4000024EE7E72346F8E7D0700000BC700000B4
:102A50002DE9F043466840F20635D006337B87B057
:102A600002EA050554BFC2F34010032001F01F071E
:102A7000B5F5837F144647EA43178DF8030044D029
:102A80000FD8062D18D007D8B5B1022D3FD06FF062
:102A9000150007B0BDE8F083B5F5807FF7D10125BB
:102AA0000AE040F20222954233D0B5F5407F32D0A1
:102AB000B5F5007FEBD1022522032ED572680123E4
:102AC0008B40C2F80835326992BB07F01F037F09BB
:102AD0002BD0012F79D13F4A02EB830284F480335B
:102AE000D2F80017C3F30043C4F3404444EA43045C
:102AF00021F4E16144EA800421F0070144EA05235E
:102B00000B43C2F800370020C3E70725D4E70425AC
:102B1000D2E70525D0E70325CEE7630341BF0123B4
:102B200072688B40C2F80C35CDE74FF0A042D3E776
:102B300010360DF102023946304601F0A9F914F4BD
:102B4000403F80460CD13946304604F003F8224B12
:102B50009845D8D19DF80210304601F0F5F9D2E73A
:102B600001AB4FF0000903AA39463046CDE90439DC
:102B7000CDE90199CDF80C9001F04CF8164B984234
:102B800085D114F4003315D09DF803308DF80E3044
:102B900084F48034C4F300444B4603AA39463046DB
:102BA0008DF80C508DF80D4001F0EEF80A4B98426C
:102BB000CDD06CE7CDE9043303AA0DF10303394608
:102BC0003046039301F026F8F0E703F5E07352F87E
:102BD0002330FFDE000300500000AD0B036803F05C
:102BE0001F025B09026004D0012B034818BF0020BC
:102BF00070474FF0A0407047000300502DE9F04FA0
:102C0000DFF89481DFF8949185B01546824600EB99
:102C10008101514503D1002005B0BDE8F08FDAF8FD
:102C20000030DE04C3F3432203F07F0400F1AE80E2
:102C30007F2C4FEA134318F8027008BF4FF0FF349F
:102C4000222B00F2A680DFE803F012191F22252BA9
:102C500022A4A4A4A43C68A4A4A4A4A4A4A4A4A45A
:102C60006B818487A4A4A48A9295989B9E00C5F842
:102C70000C45601C5ED10AF1040ACAE7C5F8144588
:102C8000621CF8D000265FE0C5F80845F1E7C5F8FA
:102C90001045F5E7631CC5F80845ECD0002604E0B4
:102CA000661CC5F80C45E6D0012603A80394FFF77F
:102CB00095FF039B4FF0010B0BFA03F3C0F80C35A3
:102CC00008E0C5F80845002FDAD1631CD3D00026F0
:102CD000B3460627DAF80030019303F40052002AC5
:102CE00003A81CBF4FF0000B01260394FFF776FFEB
:102CF000039A019B00EB8200C3F3C114D0F80027B4
:102D00003B0243EA840343EA0B0302EA090213434A
:102D100043EA4603C0F80037ADE7C5F80C45D2E7F3
:102D2000C5F86045601CDAF80030A4D0C3F38033E6
:102D3000002BB9D003A80394FFF750FF039B012693
:102D400006FA03F3C0F80835B346C3E7C5F864458F
:102D5000E8E7C5F86845E5E7C5F86C45E2E7C5F87A
:102D60002445621C87D04FF0000B0126B2E7C5F85E
:102D700028457EE7C5F83045F3E7C5F83445F0E768
:102D8000C5F83845EDE7C5F83C4572E76FF015002A
:102D900042E76FF085003FE7797C0000F0F8FCFF28
:102DA0002DE9F7430646002201210220FFF762F9D0
:102DB0000220FFF72FF9776835693C684FF000086B
:102DC000C4F800852E60D7F80C9001AA4146484609
:102DD00003F0A3FD002837DB019BD9F80020197907
:102DE0001868FFF70BFF00282EDB6B7A3169012B87
:102DF00003D0032B26D14FF01008AB7A032B21D13F
:102E000095F80BC0BCF1000F02D0BCF1010F19D135
:102E10002A7A12B1022A15D10E226B687068B3F5B6
:102E2000164F00687BD02DD8B3F5165F7AD016D830
:102E3000B3F5966F78D00AD8B3F5967F77D0B3F50F
:102E4000167F77D06FF0850003B0BDE8F083B3F54F
:102E5000166F72D0B3F5965FF4D15C4B3EE0B3F5DC
:102E6000E14F6DD007D8B3F5615F6BD0B3F5964FE6
:102E7000E8D1574B32E047F6122E7345E2D14FF4BA
:102E800000032BE0B3F5613F5ED013D8B3F5963F56
:102E90005DD009D84DF6C02E73455AD0B3F5614FB9
:102EA000D0D14FF46B0319E0B3F5E13FCAD14FF035
:102EB000EB7313E0B3F5612F4ED009D8DFF814E1BE
:102EC00073454CD0B3F5E12FBCD14FF0E86305E07A
:102ED000DFF804E17345B5D14FF08053C0F82435D5
:102EE000736848EA0C081B6842EA0802C3F86C25BC
:102EF0000B1DD5E9010183E803007B6899073DD5E7
:102F000005F1180001F058F9344B98422AD03448A2
:102F1000344A012103F06DFB6FF0040094E74FF495
:102F20001D03DBE7304BD9E74FF49E23D6E74FF480
:102F3000A033D3E74FF41C33D0E74FF41D23CDE784
:102F40002A4BCBE72A4BC9E74FF06C73C6E7294BF6
:102F5000C4E74FF46503C1E74FF07063BEE74FF07D
:102F60008063BBE7287E04F10C0204F5907103F046
:102F700069FD2B7E0120984000F022FC0823C4F854
:102F800000353B7A53B9C4F81031D4F810316B696D
:102F9000C4F834350123C4F8383523607B689A07B8
:102FA0005CBF4FF48073C4F804337B68DB0644BF16
:102FB0004FF48003C4F804332B69C4F8443500206F
:102FC0000123C4F84805A360E3603DE700B01300A7
:102FD00000A04E0090D0030040420F000000AD0B57
:102FE000C8720000817C00000050270000C07500FE
:102FF00000F03A0000903A01F8B5044607690D4622
:1030000003F011FEB0B92E4B1B789BB164266068AB
:1030100003F0B1FC00BB012003F012FD013EF6D12C
:103020000021212001F0AAFFF0E786F31188BFF309
:103030006F8FF5E74FF02003EFF3118683F31288CB
:10304000BFF36F8F6068314603F095FC90B986F34B
:103050001188BFF36F8FEDE74FF02003EFF3118678
:1030600083F31288BFF36F8F6068314603F083FCEF
:103070000028DAD03B691D70626838691368C3F8AC
:1030800044050120C3F848050020C3F82001D3F807
:103090002051C3F858015268D3F85801D20608D518
:1030A000626812680820C2F800054FF48002C3F875
:1030B000042301229A6081F31188BFF36F8FF8BD5A
:1030C0000C15002070B5012383400E4ABFF35B8FBF
:1030D000DC4352E8001F01EA040542E80056002ED6
:1030E000F7D1BFF35B8F4FF4803282400648C0F8BF
:1030F0000823BFF35F8FBFF36F8F0B4214BF012014
:10310000002070BD200E00200010014070B40E4958
:10311000D1E90034D01AC31844F1000422F07F46EC
:10312000C1E90034A6F50013B3F5400F09D2074BEF
:103130001B681A0A1B069C19054B42F10005C3E9DE
:10314000004570BC02F010B8D8060020240E002004
:10315000E006002011B3BFF35B8F0123104A8340C8
:1031600052E800CF4CEA030C42E800C10029F7D135
:10317000BFF35B8F0B4A4FF480338340C2F80433B4
:10318000094BBFF35B8F1B68BFF35B8FC340DB074B
:1031900042BF064B4FF40032C3F80021704700BF16
:1031A000200E0020001001401C0E002000E100E075
:1031B0000D4B1868010A0006BFF35F8F0B4BD3F865
:1031C0000435181841F10001B3F5801F0AD2084BED
:1031D000D3E90023904271EB030303D210F1807016
:1031E00041F10001704700BF240E00200010014093
:1031F000E00600202DE9F04F85B016461F469DF8E9
:1032000040A00446FFF75EFF0190FFF7D1FFB042F8
:1032100071EB070354D23E4B301A67EB0101984221
:1032200071F100014FD23B4B03EB0413D3E90223AE
:103230009F4208BF96425ED037494FF4803804F170
:10324000500508FA04F8AD00C1F848832046ADB235
:1032500003F0DAFB26F07F4B05F1804504F5A873F7
:1032600005F58835DC464FF003090293029A2CF0ED
:103270007F4341F82230C1F84483D1F80435274A0E
:103280006FF00200C01A604420F07F40904232D9B3
:10329000286868B1D1F804350393A3EB0B0020F044
:1032A0007F40B0F5000F26D9204603F0ADFB039B0D
:1032B000BAF1000F07D109EB030C09F10109D5E7B9
:1032C000BAF1000F09D06FF0150520460199FFF7FC
:1032D00041FF284605B0BDE8F08F0123104ABFF337
:1032E0005B8FA34052E8000F184342E80001002919
:1032F000F8D1BFF35B8F07490E98230101EB04124D
:10330000C8500F9B5360C2E902670025DDE700BF8C
:1033100001008000C806002000100140FDFF7F0072
:103320001C0E00207FB51C4C1C4BC4F80833C4F89D
:1033300048331B4B00254FF0FF304FF0FF31C4F8EE
:103340000855C3E902014FF48033C4F80433154B28
:1033500002264FF400320121C4F804631120C3F89F
:1033600080212A46FEF786FE1120FEF753FE0E4A04
:103370000123A360236013600C4B0D4A0093CDE939
:10338000015500232846FFF735FF3046FFF7F0F9D7
:10339000284604B070BD00BF0010014003000F00BC
:1033A000C806002000E100E0200E00200D310000E2
:1033B000FFFF7F002DE9F7432F4CD4F80433990722
:1033C0000BD5D4F8043143B12C4A0023C4F804319E
:1033D000D4F80431136801331360D4F80433DA03EA
:1033E0002AD5BFF35B8F264B53E8002F22F0010153
:1033F00043E800100028F7D1BFF35B8FD30702D456
:10340000D4F84031C3B10025C4F84051D4F840315C
:10341000FFF7CEFE4FF02003EFF3118283F3128803
:10342000BFF36F8F174BD3E90267B042B94106D2A1
:1034300082F31188BFF36F8F03B0BDE8F0834FF0C4
:10344000FF384FF0FF39C3E90289D3E900101D604E
:103450004FF48033C4F84833C4F84051D4F84031B5
:1034600082F31188BFF36F8F0029E5D000903246B8
:103470003B4628468847DFE700100140240E002025
:103480001C0E0020C806002030B5431C124C85B02D
:1034900005D08442A8BF0446012CB8BF0124FFF721
:1034A00087FE0E4B0C4DD3E90013401AB0F5000F08
:1034B00010D22218AA4228BF2A4652184FF0000004
:1034C00007490091CDE9010043F10003FFF792FEA7
:1034D00005B030BD2A46F0E7FFFF7F00D806002088
:1034E0000D31000008B5FFF763FE024B1B68C01AE0
:1034F00008BD00BFD806002010B5084C012363604A
:103500001120FEF795FD064BC4F80833C4F8483384
:10351000044B4FF40032C3F8802110BD001001406D
:1035200003000F0000E100E008B5FDF797FC044838
:10353000044A012103F05DF80020FEF7A5FC00BF5E
:1035400090720000BE7C00004FF08053D3F8302111
:10355000082A06D1D3F83431052B02D8024AD05CB0
:1035600070470020704700BFE17C0000024AD2F89B
:103570000034002BFBD0704700E0014010B54FF045
:103580008053D3F83021082A4ED14FF080420021D9
:10359000C2F80C11C2F81011C2F8381502F54042F9
:1035A000D3F80414C2F82015D3F80814C2F824156F
:1035B000D3F80C14C2F82815D3F81014C2F82C153F
:1035C000D3F81414C2F83015D3F81814C2F834150F
:1035D000D3F81C14C2F84015D3F82014C2F84415CF
:1035E000D3F82414C2F84815D3F82814C2F84C159F
:1035F000D3F82C14C2F85015D3F83014C2F854156F
:10360000D3F83414C2F86015D3F83814C2F864152E
:10361000D3F83C14C2F86815D3F84014C2F86C15FE
:10362000D3F84434C2F87035FFF78EFF18B13A4B27
:103630003A4AC3F88C26FFF787FF18B1384BFB22B4
:10364000C3F81825FFF780FF70B14FF080414FF0AD
:103650008053D1F8E42ED3F8583222F00F0203F051
:103660000F031343C1F8E43EFFF76EFF20B12D4B6B
:103670004FF40072C3F840264FF08053D3F8303136
:10368000082B1AD14FF08043D3F80024D20744BF4F
:103690006FF00102C3F800244FF08053D3F83431A7
:1036A000052B02D8204AD35C3BB14FF01023D3F84E
:1036B00008224FF08043C3F858254FF01023D3F869
:1036C0000022002A03DBD3F80432002B22DA174948
:1036D00001234FF01020C1F804351224FFF746FFF4
:1036E000C0F80042FFF742FFC0F80442FFF73EFF78
:1036F0000023C1F80435FFF739FFBFF34F8F0C49A2
:103700000C4BCA6802F4E0621343CB60BFF34F8FE7
:1037100000BFFDE710BD00BF00500040488103001E
:1037200000F0004000900240DB7C000000E001401F
:1037300000ED00E00400FA0530B50468CCB1BFF339
:103740005B8FB4FA84F3C3F11F03DBB201229A400A
:1037500024EA020250E8005FA54204D140E8002CB0
:10376000BCF1000FF6D1BFF35B8FE6D102480B70BE
:1037700030BD0248FCE700BF0000AD0B0200AD0BFE
:1037800010B50368CB40DB0714D401238B400268DB
:10379000BFF35B8F43EA020150E8004F944204D12B
:1037A00040E8001CBCF1000FF6D1BFF35B8FEED1F7
:1037B000014810BD0148FCE70000AD0B0400AD0B53
:1037C000014BC3F80405704700F00140F7B504460B
:1037D00018B1012823D003B0F0BD4FF0804302227E
:1037E000C3F808230122DA60C3F80401D3F80431D6
:1037F000064601238DF8073042F210754FF08047DE
:10380000D4B1012CE7D1D7F80C3403F48033AEBB2C
:1038100083B3012003F014F9013DF4D12AE04FF005
:1038200080430022C3F808035860C3F80021D3F88E
:1038300000310DF10706DCE7D7F8183403F48033C4
:103840003EB9002BC7D0012003F0FAF8013DF3D1B7
:10385000C1E7D7F8182402F003023260002BBAD077
:103860009DF80700012803D103F0EAF8013DC7D114
:10387000012CB0D1054B00225A71ACE7D7F80C24CB
:1038800002F001023270002BEAD1F3E7280E00208B
:10389000044B1A7922B9012218609A8002487047B5
:1038A00002487047280E00200000AD0B0C00AD0B45
:1038B00008B5074B1B682BB10020FEF7CDFB08B9FC
:1038C000FEF7A8FB4FF080430022C3F8182508BD7F
:1038D000280E002010B510B1012843D010BD4FF0C4
:1038E0008043D3F81814D3F81824C80321D502F064
:1038F0000303012B04D013B10020FFF767FF00235F
:103900004FF080420220C2F8183508224FF482732B
:1039100003F180430021196002F180421C680124F8
:103920001460154A12680AB34FF08043C3F80403C9
:10393000D4E7D3F81424D107E1D5D3F81C24920797
:10394000DAD40D4A12681AB10222C3F80423C5E77B
:10395000D3F80421002AFBD00022C3F80421D3F8B5
:103960000431BBE700224FF48073D1E71A68002AC4
:10397000FCD019601B68B1E7280E002010B54FF08D
:103980008043D3F800216AB10022C3F80021D3F8A4
:1039900000210122C3F80823114B587910B95A713C
:1039A0001B6898474FF08043D3F8042172B100227E
:1039B000C3F80421D3F80421D3F81824D3F8182429
:1039C000920704D10122C3F818259A6010BD022283
:1039D000C3F80823024BBDE810401B6801201847BC
:1039E000280E0020036803F01F025B09026004D068
:1039F000012B034818BF002070474FF0A0407047CC
:103A000000030050034A430900F01F00D35C184430
:103A1000C0B27047E77C000070B50546FFF7F2FFC3
:103A20000C4C08300E4634F81030DA0508D5C3F3D4
:103A3000432304EBC302284654F8333052689847B6
:103A4000A3682BB1E26831462846BDE870401847AC
:103A500070BD00BF5C00002008B5FFF7D3FF034B2B
:103A6000083033F81000400B08BD00BF5C00002098
:103A700008B5FFF7C7FF034B083033F81000C0F359
:103A8000400008BD5C00002008B5FFF7BBFF034BFA
:103A9000083033F81000C0F3401008BD5C0000206F
:103AA000034611F0010010B5CCB20DD1A207C4F34A
:103AB000400012D5094AD2F820055860C2F8200506
:103AC000003818BF012008E04FF0A041D1F82025B0
:103AD0001A60C1F82025002AE8D010BD000300506C
:103AE00010B5FFF78FFF124A083032F81030D905B1
:103AF0001CD5C3F3432123F4F85322F8103002F10C
:103B00000E04002034F8023F13F4807F03D0C3F387
:103B1000432399420AD001303028F3D1002342F8E0
:103B200031300448BDE81040FFF72ABE10BD00BF89
:103B30005C000020D4000020F0B5054600200446BB
:103B4000012607468C420BD1114BD3F87C2132B1B0
:103B50000022C3F87C21D3F87C3140F00040F0BD56
:103B6000E3B29B0003F580729B0806FA03F31D4243
:103B70000BD002F1804202F5C042D2F800C0BCF185
:103B8000000F02D01760126818430134DAE700BF53
:103B900000600040F7B506460846FFF733FF194FAF
:103BA00000F108050C4637F81530DB0727D53046FD
:103BB00002F0ACFF2046FFF767FF40B12046FFF759
:103BC0004BFF316800F5A270002341F820302046F9
:103BD000FFF786FF002301A827F815300194FFF7AF
:103BE00001FF019B00EB8300074BD0F80027134037
:103BF00043F00203C0F80037044803B0F0BD0448A6
:103C0000FBE700BF5C000020F0F8FCFF0000AD0BFC
:103C10000400AD0B2DE9FF41164680460846FFF72C
:103C2000F1FE0D463168044609B32846FFF720FF30
:103C300018B12846FFF728FF10BB0023CDE9003359
:103C40008DF80E308DF80F300DF10F020B4628461F
:103C50000DF10E0102F002FF474A04F1080132F8AB
:103C6000113023F0020343F0010322F8113073688E
:103C700063B328461F785968FFF7FAFE10B1D1B137
:103C80003E4826E03C4A04F1080032F8103023F0A8
:103C90002003DB04DB0C22F8103061B1032FEFD8D6
:103CA0007168496891F800C0D8F80010A7B90CF500
:103CB000A27C41F82C70304A04F1080132F811302E
:103CC00023F01C0343EA870322F81130B3684BBB8F
:103CD0002B4804B0BDE8F08101EB8C0143EA4C3382
:103CE000D1F810E52EF0030EC1F810E5D8F8001059
:103CF00001EB8C0E43F02003DEF8101522F8103093
:103D000021F44F3121F44071CEF810152902DEF86C
:103D1000108501F47C5141EA074141EA0801CEF8DF
:103D20001015C8E7D3E900672846FFF7D9FE002E33
:103D3000CED0114DD5E90023964203D19F4201D147
:103D4000002209E00F480DF10F01FFF7F5FC0C4BC5
:103D50009842BED19DF80F2045F8326005EBC203B2
:103D600008345F6035F8143043EA422343F480732B
:103D700025F81430ACE700BF5C0000200400AD0B58
:103D80000000AD0BD40000202DE9F0430C4685B0B7
:103D90008046204611461E46FFF734FE054629B3ED
:103DA0002046FFF765FE18B92046FFF76DFE18BBE9
:103DB000314F05F1080937F8193013F01C0F02D004
:103DC0004B78012B18D001238DF80F300023CDE95B
:103DD00000134A1C8B1C20460DF10F0102F03EFE21
:103DE00037F8193043F0030327F81930002E41D07B
:103DF0002046FFF73DFE18B9204805B0BDE8F08326
:103E000096F800C0D8F800301B4F0CF5A2720021C4
:103E100043F8221005F1080237F8121021F02001B2
:103E2000C904C90C27F8121075781DB3D8F8000022
:103E3000B67800EB8C002D04D0F8103523F49913DC
:103E400023F4F853C0F81035230203F47C5305F42F
:103E500040353605D0F810E52B4306F4801641EACC
:103E60004C31334341F0200143EA0E0327F812108E
:103E7000C0F810350248C0E75C0000200400AD0B1C
:103E80000000AD0B014BC3E9021270475C0000203B
:103E900010B508461446FFF7F7FD50B10846FFF786
:103EA000B1FD054B083033F8103004485B0B23702C
:103EB00010BD0348FCE700BF5C0000200000AD0B14
:103EC0000400AD0B70B5184E96F8804005464CBB0B
:103ED0002146602206F1100003F097F82D68306F3C
:103EE0002146884212D10023C5F87C3145F30730C2
:103EF000D5F87C31FEF78EF84FF00043C5F8043357
:103F00000A48012386F88030B36770BDCBB29B00AE
:103F100003F580727C2B08BFAC5001F1010108BF92
:103F2000AB58DEE70248F0E75C0000200000AD0B74
:103F30000C00AD0B034B93F88000003818BF012034
:103F4000704700BF5C0000200148FFF719BC00BFAC
:103F5000D00000200148FFF7EFBB00BFD0000020D9
:103F600073B5054608460C461646FFF78DFD00B3AF
:103F70000846FFF77DFD0146D8B92046FFF76CFDE6
:103F800004B2A40004F580720346286881502968B1
:103F900082582144D1F8102542F00102C1F81025C1
:103FA0002EB12968012202FA03F3C1F8043302B0EA
:103FB00070BD2046FFF726FD0F4B083033F8103058
:103FC000C3F38203042B12D0052B12D001A8019455
:103FD000FFF708FD019AD0F81035D34003F0010334
:103FE000991C204602B0BDE8704002F080BD03215C
:103FF000F7E70221F5E700BF5C0000202DE9F04F54
:10400000694BDFF8A881D3F80403D8F87010C0B268
:1040100089B040F00040FFF78FFD051E2FDAC24641
:1040200000235AF87C1F06A8CDE90633FFF738FDB8
:104030005F4B01930DF118094FF0000B019A12F834
:10404000013B0192DA0803F007031AF8022022FA72
:1040500003F3DA071CD409F10409BBF1000F14D0F3
:10406000D8F870104FF00040FFF766FDD8F87C10CC
:1040700006A8FFF715FD0028DAD125F00045012438
:10408000002D79D109B0BDE8F08F4FF0010BD5E7D5
:10409000484B5B440293D9F800100029DBD0029B07
:1040A00091FAA1F11C78B1FA81F141EA4414204659
:1040B000FFF7A8FC0830059438F81070C808BB0852
:1040C00019F80020039301F00701012303FA01F11D
:1040D00022EA010209F8002005A8FFF783FC059AEF
:1040E000039B02F5E072C7F3820650F822205B07BB
:1040F0003746C2F3014224D520463946D6B2FFF7EF
:104100008BFC05A80594FFF76DFC059B03F5E07398
:1041100050F82330C3F301439E4207D100212046CB
:1041200002F0E5FC3146204602F0E1FC05A80594CA
:10413000FFF758FC059B012202FA03F3C0F8203573
:10414000A9E7022A0CD10321204602F0D0FC06F098
:104150000503012BEAD139462046FFF75DFCE5E770
:1041600002212046039202F0C2FC032EF3D0039AF0
:10417000032ADBD1022EEDE795FAA5F3B3FA83F318
:1041800004FA03F29B0003F1804303F5C04325EAE0
:104190000205D3F81005D3F81015C0F30520C1F3BC
:1041A0000141FFF739FC6BE7006000405C00002034
:1041B000F77C0000F77C000001460148FFF7BCBA1D
:1041C000E000002008B5124BA8220021184602F09A
:1041D0001CFF032202610F4942610F4A8161C261E3
:1041E0004FF480620262002282624262C262016611
:1041F0000A49416610218166094902670346C26681
:10420000426711F8010D98540132102AF9D108BD06
:10421000300E0020F97C00000C110020FC10002062
:10422000127D00002DE9F84FDFF87C80182606FB90
:10423000008E00FB06664644DEF82440DEF828C007
:104240007368A44507468946154603EB040022D847
:10425000DEF820B0ABEB040A0AF1FF339A4203D830
:1042600002F0C5FE2C440FE063449A4219D852462E
:104270002C4402F0BCFEB4EB0B0405D0706822465F
:1042800009EB0A0102F0B3FE182303FB07830120A8
:104290005C62BDE8F88F0CF1FF3CACEB040C94457C
:1042A000DED20020F5E700BF300E0020034B1822BD
:1042B00002FB00339A6A586A801A7047300E002059
:1042C00003484FF0FF324FF0FF3300F0B1BA00BFA8
:1042D000CC010020014800F06FBA00BFCC010020E3
:1042E0002DE9F843044600AF0D464FF02003EFF3ED
:1042F000118883F31288BFF36F8F0428284A98BF70
:10430000284B9668117C94BF53F82030264BE94621
:104310008AB06A462548C2E9073140F201339384E6
:10432000234BC2E9050442F8103F224800234FF412
:104330003151FCF777FECD4645B1EB69C3F3080375
:1043400023B11D4A1B48012102F053F92EB130461A
:1043500002F072FC08B1037803B91848E9468AB044
:104360006A46174BD061C2E9053640F20133138427
:10437000144B42F8103F00230E484FF41151FCF744
:1043800051FE2946CD462046FFF7CEF888F3118826
:10439000BFF36F8F3046FDF7CDFDBD46BDE8F88316
:1043A000DC0E0020D0740000137D0000297D000089
:1043B00005000001B8720000517D0000217D000061
:1043C000727D000004000001104B70B553F82040CE
:1043D000013053F82060A64200D870BDD4E9003502
:1043E00095B153B12846984738B10028B8BF40422C
:1043F000EB68FF28A8BFFF201870EA68537843F0E5
:10440000010353700834E6E79847FBE7E4740000C3
:1044100008B50A4B012203201A70FFF7D5FF00F000
:10442000D3FF0420FFF7D0FF00F07AF902F079FD06
:10443000034A137B23F00103137308BD0C150020FE
:104440006807002008B50348034A0021121A02F049
:104450009CFB08BD080200201015002070B5002349
:1044600086B00122CDE90423194E1A4D01930F2283
:10447000CDE902321849142303FB005506EBC016A0
:1044800004464FF4C070154B00954FF4A07200FB2A
:104490000411304600F0D8F8737B114AEE6023F027
:1044A000040373734FF4046304FB033313446B601E
:1044B0000C4B2C74BFF35B8F53E8001F013143E8B2
:1044C0000012002AF8D1BFF35B8F06B070BD00BFA9
:1044D000E8060020DC0E0020C02000203D6C00001B
:1044E00080180020D80E002080B50020A6B0FFF76D
:1044F0006BFF2E4B83F308882D4D2E4E6B692E4F8C
:1045000043F400736B610024E02385F82230EC77DC
:104510002C766C76AC7685F820406B6A43F4E02309
:104520006B6285F82340FDF773FCFDF725FE4FF025
:10453000FF33AB62EB62FDF70BFFFDF75DFEFCF7AF
:10454000F9FB40F20113ADF8243006ABB360CDE9BE
:104550001E44219402F00DFB0120FFF735FF0220DD
:10456000164DFFF731FF00F07FFC154B7561059389
:10457000012314490094CDE903434FF480623B4684
:10458000CDE90144284600F05FF86A7B064622F038
:10459000040228466A7302F0B2FB2046FFF75EFF72
:1045A0003A4631462846FDF7CBFD00BFC02000202B
:1045B00000ED00E0DC0E0020114400006807002040
:1045C000D47D00004022002038B5064C064D002066
:1045D000AC4200D338BD204602F0DBFA0028F9DBFC
:1045E0001C34F5E7900100209001002073B50C46C3
:1045F0004FF02005EFF3118185F31288BFF36F8F21
:10460000C5685DB125602B68C36083690133836130
:10461000002081F31188BFF36F8F11E052EA030687
:1046200003D125606FF00B00F3E7CDE900230246CC
:10463000083000F055FB18B9024B9B685B6923609A
:1046400002B070BDDC0E00202DE9F04385B00732CA
:10465000994600F1580322F00706C0E91633109B73
:10466000037306F140050423002743730D440F9B99
:1046700083738846C0E9067729468760C773044676
:10468000FDF762F908F140030730C4E9183620F05D
:1046900007000E9BA06602930D9B01932D1A0C9BA5
:1046A00000932A464B4641462046FDF717FD054B31
:1046B00067659B6803B1DB6EE366284605B0BDE81D
:1046C000F08300BFDC0E0020F0B587B00025059513
:1046D000109D04950F9D03950E9D0295DDE91276C0
:1046E0000D9D01950C9D00950446FFF7ADFFB6F1B9
:1046F000FF3F08BFB7F1FF3F05D056EA070305D1DA
:10470000204600F063FB204607B0F0BD03493A465F
:10471000334604F1180000F0B1FCF4E7BD6D000071
:1047200070B5224C224D86B02646AE4204F13004CC
:104730000AD300F069FB1D4C1E4EAC4220D306B0DC
:10474000BDE8704000F074BB54F80C3C059354F87D
:10475000103C049354F8143C039354F8183C02930F
:1047600054F81C3C019354F8203C009354E90A236C
:1047700054E90C01FFF768FF54F8303C5E65D3E75D
:10478000D4E90A23B3F1FF3F08BFB2F1FF3F05D0E0
:1047900052EA0301206803D100F018FB3034CCE763
:1047A0003146183000F06AFCF8E700BF787200006C
:1047B00078720000BD6D000038B5836804466BB3A5
:1047C000194A926893422CD1C368012B03D9013B4B
:1047D000C360002038BD4FF02003EFF3118583F351
:1047E0001288BFF36F8F0169806802F033FA2046A8
:1047F00002F0FFFAA06058B190F90E202261002269
:10480000826702F07CFA0948294600F0CDFAE0E719
:10481000E06085F31188BFF36F8FDAE76FF0150062
:10482000D8E74FF0FF30D5E7DC0E00200D15002053
:104830002DE9F341044617461E464FF02003EFF3DF
:10484000118883F31288BFF36F8FC368334A7BB13B
:1048500080689168884219D057EA060318D188F316
:104860001188BFF36F8F6FF00F0002B0BDE8F081C9
:10487000916891F90E1021610133E3609368A360A0
:1048800088F31188BFF36F8F0020EEE72169F2E70C
:1048900091F90E1090F90E309942A8BF19466FF0A9
:1048A0007E029142B8BF11468B422EDD02F0D2F952
:1048B0000546CDE900761A482246414600F010FA36
:1048C0000028E1D04FF02003EFF3118683F3128824
:1048D000BFF36F8FA068D0B1236821699C420AD0D2
:1048E0004BB193F90E309942A8BF19466FF07E0381
:1048F0009942B8BF194602F0ADF940B108483146B7
:1049000000F052FA6FF00A00AFE70025D1E7002D62
:10491000F4D186F31188BFF36F8FF3E7DC0E00202C
:104920000D15002038B504464FF02003EFF3118534
:1049300083F31288BFF36F8F02F05BFA48B1002255
:10494000826702F0DCF929460748BDE8384000F0EC
:104950002BBAD4E902329A4218BF0133A36085F31F
:104960001188BFF36F8F38BD0D15002013B54FF0C0
:104970002004EFF3118184F31288BFF36F8F8468F2
:1049800044B1013C846081F31188BFF36F8F002034
:1049900002B010BD52EA030406D181F31188BFF3BF
:1049A0006F8F6FF00F00F3E7CDE900230246024856
:1049B00000F096F9ECE700BF0D150020C3897F2BAE
:1049C00012D80A4B1B6863B1094B90F90E201B6883
:1049D0009A4209DB437BDB0606D1064BC31A18BF9C
:1049E000012303F0010070470023FAE7040F0020C1
:1049F000000F0020E8060020044BC01A044BC01032
:104A00005843044B01221A54704700BFE8070020A6
:104A1000ABAAAAAA0D15002070B50E4B0E4C1E7C39
:104A200006EB460304EBC3040546204602F034FAC5
:104A30000A4B002228469A55FFF7C0FF48B1084BA1
:104A400008491A68013A2046D317BDE8704000F0C3
:104A500015BB70BDDC0E0020E80700200D150020FE
:104A6000040F0020F949000038B50D4D2B4653F8CE
:104A7000184F9C4200D004B9EC68AB6838B95A7B37
:104A8000D20604D1A26912B9DA897F2A05D89C42DC
:104A900002D02046FFF7C0FF23466B6138BD00BF40
:104AA000DC0E002070B590F90D20437B002A0146F2
:104AB00004DA03F07F03437302F0E7F84B7B154AF7
:104AC00063F07F0310464B7350F8183FD46983425C
:104AD00008BF002323B9C1E900042160D1610CE0C3
:104AE00091F90E5093F90E60B5420ED0AE420CDD36
:104AF0005868C1E90030016059609068431A584213
:104B0000BDE870405841FFF7AFBF9C42E3D01B683F
:104B1000E0E700BFDC0E002070B490F90D30427B5E
:104B2000002B29DBD30627D183692BBB134962F005
:104B30007F0242730A4652F8184F944218BF234628
:104B4000CC6923B9C0E900242060C8610CE090F969
:104B50000E5093F90E60B5420AD0AE4208DD5A6895
:104B6000C0E900321060586070BC0020FFF77CBFC5
:104B7000A342E7D01B68E4E770BC7047DC0E00205E
:104B800008B590F90D20437B002A014604DA03F0B2
:104B90007F03437302F079F8044B9868431A584234
:104BA0005841BDE80840FFF75FBF00BFDC0E0020A2
:104BB00070B515461C46064602F079F8B4F1FF3F81
:104BC00008BFB5F1FF3F08D02A46234606F118007A
:104BD0000249BDE8704000F051BA70BDBD6D0000E3
:104BE0002DE9F041002A437B0E460CBF102108211D
:104BF000194204460AD10B43DD0903F09F0211D18B
:104C00004273082914D00120FFF72EFF1B4B9B682D
:104C1000A3422CD1EFF305834BBB3046BDE8F041F6
:104C2000FDF79EB903F01F03437302F02EF8E8E787
:104C3000A36813B1204602F030F804F1180002F026
:104C40002BF904F158074FF00008A56DBD42DAD0EA
:104C5000002DD8D0284602F020F805F1180002F007
:104C60001BF9C5F878802846FFF756FFEDE786F375
:104C70001188BFF36F8FBDE8F08100BFDC0E00200C
:104C800038B54FF02003EFF3118583F31288BFF39B
:104C90006F8F104B104A9C681068A04206D1FFF736
:104CA000BBFE85F31188BFF36F8F38BD00211B7CDD
:104CB00011600A4AD35C002BF3D02046FFF77EFE3A
:104CC0000028EED0637BDB0602D12046FFF7EAFE28
:104CD0002046E4E7DC0E0020FC0E00200D1500202D
:104CE00070B50C480C4D86682E600C461146DDE907
:104CF00004234FF02006EFF3118586F31288BFF3EB
:104D00006F8F8068FFF754FF2046BDE87040FDF7C5
:104D100027B900BFDC0E0020FC0E0020F8B50446C9
:104D20004FF02003EFF3118683F31288BFF36F8FE8
:104D3000437BDA0649B219D18569BDB903F07F0317
:104D4000437301F0A2FF437B164A817363F07F0334
:104D50004373134653F8180F984218BF0546D0699D
:104D60005DB9C4E900300460D46111E0A173002092
:104D700086F31188BFF36F8FF8BD95F90E70B942B5
:104D80000BD08F4209DD6B68C4E900531C606C6076
:104D90000120FFF769FE0120EAE7A842E1D02D6873
:104DA000DEE700BFDC0E002049B9EFF3058030B923
:104DB000054B5A699B689A4201D0FDF7D1B881F33F
:104DC0001188BFF36F8F7047DC0E002010B54FF0D5
:104DD0002002EFF3118482F31288BFF36F8F427BBE
:104DE000510704D484F31188BFF36F8F10BD22F0F4
:104DF00004024273FFF790FE21460248BDE81040CE
:104E0000FFF7D2BF0E1500204FF02003EFF3118102
:104E100083F31288BFF36F8F044B9A68D37B013BF7
:104E2000D37381F31188BFF36F8F7047DC0E0020BE
:104E300010B54FF02003EFF3118483F31288BFF312
:104E40006F8F084B9A68D37B0133D3730020FFF731
:104E50000BFE84F31188BFF36F8FBDE8104001F0A3
:104E6000F0BF00BFDC0E0020024B03F11802C3E9C3
:104E700006227047DC0E0020F8B54FF02003EFF358
:104E8000118583F31288BFF36F8F19498868437BBC
:104E900003F07F03437301F0F8FE8B685A7B0846EA
:104EA00062F07F025A7350F8182FCC69824208BF13
:104EB000002222B9C3E900042360CB610CE093F91E
:104EC0000E6092F90E70BE420ED0B7420CDD5168F2
:104ED000C3E900210B6053600120FFF7C5FD2846A0
:104EE000BDE8F840FDF73CB8A242E3D01268E0E725
:104EF000DC0E002050EA01032DE9F04105460E4684
:104F000003D1FFF7B9FF00202CE0831C71F1FF33C0
:104F10002ADB01F0D7FF2C184FF02003EFF31188A4
:104F200083F31288BFF36F8F114F124BB86818606C
:104F3000FFF726FEB86810492A463346183000F0BD
:104F40009DF8BA68537B43F0100353734046FDF756
:104F500007F801F0B7FF201A63EB0303012873F190
:104F60000003D0DBBDE8F0816FF00104241AD3E721
:104F7000DC0E0020FC0E0020BD6D0000B1F1FF3FF3
:104F800008BFB0F1FF3F08B506D1084B986801F0A3
:104F9000C6FE4FF0FF3008BDFFF7ACFF4FF47A7349
:104FA00080FB0303C00B40EA4340F4E7DC0E002023
:104FB000014B9868704700BFDC0E002008B506481A
:104FC000064A0749121A01F0E2FDBDE80840054A09
:104FD0000549064801F0DBBD000000200402002066
:104FE0001C7E0000000000001C7E0000000000206D
:104FF000034B1B680BB9FEF775BA0020704700BF62
:10500000080F002010B50E4B1C689C4204D1FFF71E
:10501000EFFF6FF0004010BDFFF7EAFF002CF8D063
:10502000D4E904321B1A62EBE072B3F1004F72F163
:105030000001EEDA002AACBF18460020EBE700BF03
:10504000E400002030B570B10B4B5B6898420AD089
:10505000036843B1D3E90421D0E90445121941EBB7
:105060000501C3E90421D0E9003213605A6000232E
:10507000C0E9003330BD00BFE4000020B3F1FF3FC2
:1050800008BFB2F1FF3FF8B504461D4616465CD096
:1050900081604FF02003EFF3118783F31288BFF391
:1050A0006F8F013275F1FF3324DA2D49D1E90020E9
:1050B0006FF001039B1A4FF0FF3262EB00009E1B62
:1050C00060EB0500012E70F1000301DA01260020DB
:1050D000C4E90460234ED6F800C07568B44508BF23
:1050E0004FF0000CBCF1000F0DD1C4E900652C603D
:1050F00074601CE0FFF77CFF013645F100053618AF
:1051000045EBE070E4E7DCE90420D4E904319342A4
:1051100071EB000E1ADAD21ADCF8043060EB0100F1
:10512000CCE90420C4E900C31C60CCF80440336817
:10513000B34206D09C4204D1FFF764FF0021FEF782
:10514000A3F987F31188BFF36F8FF8BD9B1A61EB4A
:105150000001AC45C4E90431C7D0DCF800C0C1E7A8
:1051600000080020E40000202DE9F84F4FF0200354
:10517000EFF3118C83F31288BFF36F8FDFF8B0A0C9
:10518000DFF8B0902C4FC9F80000DAF800000024D6
:10519000504508BF00200025D7E90021D9F800308C
:1051A000E04680B3D0E9046C4FEAE37EB3427EEB85
:1051B0000C0B05DAF61A6CEB0E04C0E9046422E06D
:1051C000B21841EBE671C0E90445C7E90021FFF7D9
:1051D00039FF88F31188BFF36F8F836898474FF0CA
:1051E0002003EFF3118883F31288BFF36F8FD9F890
:1051F0000030DAF800009B1B5045C446C9F8003067
:10520000CAD1D7E900219A1841EBE3730024C7E91A
:105210000023C9F80040FFF7F5FE2146FEF734F9F8
:1052200088F31188BFF36F8FBDE8F84FFFF728BDF3
:10523000E4000020080F00200008002010B54FF007
:105240002003EFF3118483F31288BFF36F8FFFF70E
:10525000CFFE064A0346D2E90001181841EBE3717C
:1052600084F31188BFF36F8F10BD00BF00080020CA
:10527000F8B504464FF02003EFF3118783F312884B
:10528000BFF36F8F026822B187F31188BFF36F8F6E
:10529000F8BDD0E90A36581C46F10001022871F128
:1052A000000127D3012B76F10001BCBF0123164674
:1052B0005D1E46F1FF3601F009FE013041F10001AB
:1052C000401946EB0101012871F100013ADB01F0C0
:1052D000FDFD013041F100016FF00102401946EB84
:1052E0000103121A4FF0FF3161EB03031849204606
:1052F000FFF7C4FE236B01332363236A73B187F383
:105300001188BFF36F8F236A204698474FF0200320
:10531000EFF3118783F31288BFF36F8F54F8185F90
:10532000A542B1D0002DAFD0284601F013FD0023D7
:10533000AB6787F31188BFF36F8F2846BDE8F8404D
:1053400001F0DDBC6FF001024FF0FF33CEE700BF8C
:10535000715200002DE9F04105461C4690461F465B
:105360004FF02003EFF3118683F31288BFF36F8FA2
:10537000B4F1FF3F08BFB2F1FF3F05D186F31188BA
:10538000BFF36F8FBDE8F081531C74F1FF3309DB6D
:10539000012A74F10003BCBF0122002412F1FF387E
:1053A00044F1FF37284601F077FDDDE906010023CF
:1053B000C5E90A012B63034942463B462846FFF7ED
:1053C0005DFEDBE771520000014800F0D4BC00BF75
:1053D000DC7D000010B50A4C23681BB1012323605B
:1053E000002010BD00F0EAF80028F7D001380628A8
:1053F00003D8044B53F8200010BD034810BD00BF74
:105400000C0F0020FC740000FE8FFFFFBFF34F8FD6
:105410000549064BCA6802F4E0621343CB60BFF350
:105420004F8F00BFFDE700BF00ED00E00400FA056C
:1054300010B4094B09490A4C4FF0FE32C3F800245E
:105440004968C3F80424C3F80824C3F80C240023D3
:10545000C4F8003510BC084700B00250EC00002032
:1054600000A00250D0E90012014BC3E900127047BE
:10547000EC00002010B5044650B1636813F0685F7B
:1054800005D0064A934202D000232360626010BD1B
:10549000034B04485B689847EFE700BF2C5F5CA9AB
:1054A000EC00002018750000C8B143680D4A934213
:1054B00013D013F0685F0ED0012350E8002F194677
:1054C00040E8001C9CF0000FF7D1012AF5D0BFF393
:1054D0005F8F0020704704487047044870476FF49E
:1054E000E04070472C5F5CA9E98FFFFFEA8FFFFF68
:1054F00080B14368094A93420AD013F0685F05D02F
:10550000BFF35F8F0023036018467047044870475D
:10551000044870476FF4E040704700BF2C5F5CA9FF
:10552000E98FFFFFEA8FFFFF10B5044620B1044B5F
:1055300063600022226010BD0248FFF779FFF6E7A2
:105540003A00003A4075000070B5D0E90023174CCE
:10555000174D6360D0E90230C4E902302260486828
:10556000D1F800C0134BC3E900C0D5F81801D1F839
:1055700008C0C3F808C010F0685FD1F80CC0096912
:10558000C3F80CC0196110D00B49C5F8BC11002339
:10559000C5E9453105F58A70C5F8B83190472368EB
:1055A00005F5DC70BDE87040184770BD08010020AB
:1055B000240F0020F40000202C5F5CA938B500F017
:1055C0002FF820B1032400F063F8204638BD00F026
:1055D00031F898B900F0ACF898B90F4DD5F82839E2
:1055E0001B0EF02B08D1D5F8242A0C4B9A420AD076
:1055F000072400F017F8E6E70624FAE7042420461B
:1056000038BD0024F5E7012000F092F80446002898
:10561000F7D1C5F80C0AD8E700B002500000E0202E
:105620000020704700207047014BC3F8040A704700
:1056300000B0025010B5114800F048F800B110BD9C
:105640000F4800F043F80028F9D10E4C204600F036
:105650003DF80028F3D10C4B0C481C6000F036F8E4
:1056600001460028EBD100F02DF8044608B1204691
:1056700010BD00F03FF82046FAE700BF48010020C7
:105680004401002040010020380100203C0100209E
:1056900008B5084800F024F8074800F021F807484A
:1056A00000F01EF8064800F01BF8BDE8084000F0C6
:1056B0000BB800BF48010020440100204001002039
:1056C0003C01002000207047704700BF08B5034B25
:1056D00002681B6810689847002008BD0801002078
:1056E00008B5034B02685B6810689847002008BD46
:1056F0000801002070B5094C094D2069AB68984736
:1057000018B1084B08485B689847084AEB6820695D
:1057100000211160BDE87040184700BFF400002070
:1057200008010020EC00002064750000200F00201C
:10573000F8B51A4D1A4E0446B26828699047E8B980
:10574000184F3B684CB1A3B1012B19D0013B3B6012
:105750002869F36898470020F8BD43B9124A01212F
:10576000C2F800151149D1F81029002AFBD10133E4
:105770003B60F368286998470020F8BD0C48F8BDE5
:105780000A4AD2F81039002BFBD1074A6FF07E404D
:10579000C2F80035FFF748FF3B68D7E7F400002068
:1057A00008010020200F002000A0025000B002508D
:1057B000E98FFFFF0CB430B589B005460C461C22BA
:1057C000002101A801F021FC02238DF806300E4BC8
:1057D0000293059523462CB1B4F1004F28BF4FF03A
:1057E0000043013B1D440DAA0C99069501A80092A7
:1057F00000F00CF814B1059B00221A7009B0BDE846
:10580000304002B0704700BF1B7000002DE9F04F20
:105810008DB043680293837815469A07804640F11D
:105820000D8100240E78002E00F00A81252E0BD069
:105830004B1C03930134029B414630469847002895
:10584000C0F2F6800399EDE74E788B1C252E03936A
:10585000F0D00027B946BB46BBF11F0F38D8A6F1E0
:105860002003102B0AD8DFE803F02A0909300909C0
:10587000092109090928092D09091F00A6F130038A
:10588000092B33D92A2E37D11BF0400F55F8043B92
:1058900040F08280002BA7BF4BF0200B9946C3F14C
:1058A00000094BF0280B01E04BF0010B039B13F8B0
:1058B000016B0393002ECFD130E04BF0020B4BF085
:1058C000040BF3E74BF0080BF0E74BF0100BEDE7A0
:1058D000BBF17F0F19D8A6F13003092BD2D81BF0EA
:1058E000400F03D00A2101FB0737DFE70A2101FB44
:1058F00009394BF0200BD9E72E2E06D11BF0400FB3
:1059000040F09E804BF0400BD0E76C2E31D02BD86E
:10591000682E36D06A2E3CD04C2E3AD0002F46F05E
:105920002003B8BF2BF04002A3F16501BCBF1FFAF2
:1059300082FB0027022901D9612B2FD1073525F0E1
:105940000705DFF8ACA2083507271BF0080F66D063
:105950000AEB070B56465E4563D1A4EB0A0A06EB39
:105960000A02A9EB07096FE1742E9FD07A2E9DD011
:10597000D4E71BF0800F18BF4BF4007B4BF0800B7B
:1059800094E71BF4807F18BF4BF4007B4BF4807BC3
:105990008CE74BF4207B89E71F4687E7A6F163017C
:1059A000122900F2F080DFE811F013004F00EE0042
:1059B000EE00EE00EE004F00EE00EE00EE00EE0016
:1059C000EE00FE00E900EE00EE001B00EE00AF006E
:1059D00055F8043B8DF8183001270DF1180AB4E78B
:1059E00055F804AB834BBAF1000F08BF9A461BF081
:1059F000400F14BF39464FF0FF31504601F094FA82
:105A00000746A2E7029B41462020984700280FDB6B
:105A1000013EB742F6D34C44A41BB14698E74E462C
:105A2000F7E716F8010B029B41469847002892DAE7
:105A300098F8023043F0040388F802304FF0FF3446
:105A400020460DB0BDE8F08F1BF0800F34D01BF462
:105A5000007F2CD0073525F00705AA4669685AF85B
:105A6000080B2BF010050029ADB237DA404261EB8C
:105A7000410145F480650DF1180B0A235A4601F0E7
:105A80005FFAA0EB0B0301936B0662D5019B25F037
:105A900001019F4289B240F3A180002E00F099805D
:105AA00015F0100240F09C80BB460D4623E0AA464C
:105AB0005AF8040BC117D4E7AA461BF4807F5AF8A2
:105AC000041B01D10846F5E71BF4007F15BF48B25F
:105AD00008B241F3C01141F3C031C2E750EA0103FB
